{
  "contractName": "Vendor",
  "abi": [
    {
      "constant": false,
      "inputs": [
        {
          "name": "account",
          "type": "address"
        }
      ],
      "name": "addDepositter",
      "outputs": [],
      "payable": false,
      "stateMutability": "nonpayable",
      "type": "function"
    },
    {
      "constant": true,
      "inputs": [
        {
          "name": "account",
          "type": "address"
        }
      ],
      "name": "isDepositter",
      "outputs": [
        {
          "name": "",
          "type": "bool"
        }
      ],
      "payable": false,
      "stateMutability": "view",
      "type": "function"
    },
    {
      "constant": false,
      "inputs": [
        {
          "name": "recipient",
          "type": "address"
        }
      ],
      "name": "transferPrimary",
      "outputs": [],
      "payable": false,
      "stateMutability": "nonpayable",
      "type": "function"
    },
    {
      "constant": true,
      "inputs": [],
      "name": "isPrimary",
      "outputs": [
        {
          "name": "",
          "type": "bool"
        }
      ],
      "payable": false,
      "stateMutability": "view",
      "type": "function"
    },
    {
      "constant": false,
      "inputs": [],
      "name": "renounceDepositRole",
      "outputs": [],
      "payable": false,
      "stateMutability": "nonpayable",
      "type": "function"
    },
    {
      "constant": true,
      "inputs": [],
      "name": "primary",
      "outputs": [
        {
          "name": "",
          "type": "address"
        }
      ],
      "payable": false,
      "stateMutability": "view",
      "type": "function"
    },
    {
      "payable": true,
      "stateMutability": "payable",
      "type": "fallback"
    },
    {
      "anonymous": false,
      "inputs": [
        {
          "indexed": false,
          "name": "_who",
          "type": "address"
        },
        {
          "indexed": false,
          "name": "_amount",
          "type": "uint256"
        }
      ],
      "name": "EVM_transferred",
      "type": "event"
    },
    {
      "anonymous": false,
      "inputs": [
        {
          "indexed": false,
          "name": "_who",
          "type": "address"
        },
        {
          "indexed": false,
          "name": "_amount",
          "type": "uint256"
        }
      ],
      "name": "EVM_deposited",
      "type": "event"
    },
    {
      "anonymous": false,
      "inputs": [],
      "name": "EVM_withdrawn",
      "type": "event"
    },
    {
      "anonymous": false,
      "inputs": [
        {
          "indexed": true,
          "name": "account",
          "type": "address"
        }
      ],
      "name": "DepositAdded",
      "type": "event"
    },
    {
      "anonymous": false,
      "inputs": [
        {
          "indexed": true,
          "name": "account",
          "type": "address"
        }
      ],
      "name": "DepositRemoved",
      "type": "event"
    },
    {
      "anonymous": false,
      "inputs": [
        {
          "indexed": false,
          "name": "recipient",
          "type": "address"
        }
      ],
      "name": "PrimaryTransferred",
      "type": "event"
    },
    {
      "constant": false,
      "inputs": [
        {
          "name": "_customer",
          "type": "address"
        },
        {
          "name": "_amount",
          "type": "uint256"
        }
      ],
      "name": "sendGoods",
      "outputs": [],
      "payable": false,
      "stateMutability": "nonpayable",
      "type": "function"
    },
    {
      "constant": false,
      "inputs": [],
      "name": "withdraw",
      "outputs": [],
      "payable": false,
      "stateMutability": "nonpayable",
      "type": "function"
    }
  ],
  "bytecode": "0x60806040526000600255336000806101000a81548173ffffffffffffffffffffffffffffffffffffffff021916908373ffffffffffffffffffffffffffffffffffffffff1602179055507f4101e71e974f68df5e9730cc223280b41654676bbb052cdcc735c3337e64d2d96000809054906101000a900473ffffffffffffffffffffffffffffffffffffffff16604051808273ffffffffffffffffffffffffffffffffffffffff1673ffffffffffffffffffffffffffffffffffffffff16815260200191505060405180910390a16100e5336100ea640100000000026401000000009004565b6102e9565b61010d600160025461017564010000000002610860179091906401000000009004565b5061012f81600161019664010000000002610881179091906401000000009004565b8073ffffffffffffffffffffffffffffffffffffffff167ff734f99ca09fd179ed75ae57c270d1265a7e3fcaafedf2c4e4ab5ed3cfd72b2860405160405180910390a250565b600080828401905083811015151561018c57600080fd5b8091505092915050565b600073ffffffffffffffffffffffffffffffffffffffff168173ffffffffffffffffffffffffffffffffffffffff16141515156101d257600080fd5b6101eb8282610255640100000000026401000000009004565b1515156101f757600080fd5b60018260000160008373ffffffffffffffffffffffffffffffffffffffff1673ffffffffffffffffffffffffffffffffffffffff16815260200190815260200160002060006101000a81548160ff0219169083151502179055505050565b60008073ffffffffffffffffffffffffffffffffffffffff168273ffffffffffffffffffffffffffffffffffffffff161415151561029257600080fd5b8260000160008373ffffffffffffffffffffffffffffffffffffffff1673ffffffffffffffffffffffffffffffffffffffff16815260200190815260200160002060009054906101000a900460ff16905092915050565b610a2d806102f86000396000f30060806040526004361061008d576000357c0100000000000000000000000000000000000000000000000000000000900463ffffffff1680626d85cf1461010e578063202eb06e146101515780632348238c146101ac5780633682152b146101ef5780633ccfd60b1461021e57806383f689f914610235578063c6dbdf611461024c578063e6f1f0ce146102a3575b610096336102f0565b15156100a157600080fd5b7ff0c329673a0f211d168c9c725175bfe95e13a3ab67ff598c2f30bd9c0cfb95a63334604051808373ffffffffffffffffffffffffffffffffffffffff1673ffffffffffffffffffffffffffffffffffffffff1681526020018281526020019250505060405180910390a1005b34801561011a57600080fd5b5061014f600480360381019080803573ffffffffffffffffffffffffffffffffffffffff16906020019092919050505061030d565b005b34801561015d57600080fd5b50610192600480360381019080803573ffffffffffffffffffffffffffffffffffffffff1690602001909291905050506102f0565b604051808215151515815260200191505060405180910390f35b3480156101b857600080fd5b506101ed600480360381019080803573ffffffffffffffffffffffffffffffffffffffff16906020019092919050505061032d565b005b3480156101fb57600080fd5b50610204610443565b604051808215151515815260200191505060405180910390f35b34801561022a57600080fd5b5061023361049a565b005b34801561024157600080fd5b5061024a610540565b005b34801561025857600080fd5b5061026161055c565b604051808273ffffffffffffffffffffffffffffffffffffffff1673ffffffffffffffffffffffffffffffffffffffff16815260200191505060405180910390f35b3480156102af57600080fd5b506102ee600480360381019080803573ffffffffffffffffffffffffffffffffffffffff16906020019092919080359060200190929190505050610585565b005b60006103068260016106d790919063ffffffff16565b9050919050565b610316336102f0565b151561032157600080fd5b61032a8161076b565b50565b610335610443565b151561034057600080fd5b600073ffffffffffffffffffffffffffffffffffffffff168173ffffffffffffffffffffffffffffffffffffffff161415151561037c57600080fd5b806000806101000a81548173ffffffffffffffffffffffffffffffffffffffff021916908373ffffffffffffffffffffffffffffffffffffffff1602179055507f4101e71e974f68df5e9730cc223280b41654676bbb052cdcc735c3337e64d2d96000809054906101000a900473ffffffffffffffffffffffffffffffffffffffff16604051808273ffffffffffffffffffffffffffffffffffffffff1673ffffffffffffffffffffffffffffffffffffffff16815260200191505060405180910390a150565b60008060009054906101000a900473ffffffffffffffffffffffffffffffffffffffff1673ffffffffffffffffffffffffffffffffffffffff163373ffffffffffffffffffffffffffffffffffffffff1614905090565b6104a2610443565b15156104ad57600080fd5b6104b561055c565b73ffffffffffffffffffffffffffffffffffffffff166108fc3073ffffffffffffffffffffffffffffffffffffffff16319081150290604051600060405180830381858888f19350505050158015610511573d6000803e3d6000fd5b507f323a7471abe8a053c7333259ff6c1bcf4ebf688e593947c29f18e19a1e24cd1060405160405180910390a1565b600160025411151561055157600080fd5b61055a336107dc565b565b60008060009054906101000a900473ffffffffffffffffffffffffffffffffffffffff16905090565b61058d610443565b151561059857600080fd5b6105b78273ffffffffffffffffffffffffffffffffffffffff1661084d565b1580156105f15750600073ffffffffffffffffffffffffffffffffffffffff168273ffffffffffffffffffffffffffffffffffffffff1614155b15156105fc57600080fd5b3073ffffffffffffffffffffffffffffffffffffffff16318110151561062157600080fd5b8173ffffffffffffffffffffffffffffffffffffffff166108fc829081150290604051600060405180830381858888f19350505050158015610667573d6000803e3d6000fd5b507f53c1b99b0d3d23a3a9886b5b74b683cb8462975c9233da62c282b9ecb85cd9c48282604051808373ffffffffffffffffffffffffffffffffffffffff1673ffffffffffffffffffffffffffffffffffffffff1681526020018281526020019250505060405180910390a15050565b60008073ffffffffffffffffffffffffffffffffffffffff168273ffffffffffffffffffffffffffffffffffffffff161415151561071457600080fd5b8260000160008373ffffffffffffffffffffffffffffffffffffffff1673ffffffffffffffffffffffffffffffffffffffff16815260200190815260200160002060009054906101000a900460ff16905092915050565b610781600160025461086090919063ffffffff16565b5061079681600161088190919063ffffffff16565b8073ffffffffffffffffffffffffffffffffffffffff167ff734f99ca09fd179ed75ae57c270d1265a7e3fcaafedf2c4e4ab5ed3cfd72b2860405160405180910390a250565b6107f2600160025461093190919063ffffffff16565b5061080781600161095290919063ffffffff16565b8073ffffffffffffffffffffffffffffffffffffffff167f8defa0eb16278d6f44fa509a832758ec458246ce431d3c623e4a904b2d03cf9760405160405180910390a250565b600080823b905060008111915050919050565b600080828401905083811015151561087757600080fd5b8091505092915050565b600073ffffffffffffffffffffffffffffffffffffffff168173ffffffffffffffffffffffffffffffffffffffff16141515156108bd57600080fd5b6108c782826106d7565b1515156108d357600080fd5b60018260000160008373ffffffffffffffffffffffffffffffffffffffff1673ffffffffffffffffffffffffffffffffffffffff16815260200190815260200160002060006101000a81548160ff0219169083151502179055505050565b60008083831115151561094357600080fd5b82840390508091505092915050565b600073ffffffffffffffffffffffffffffffffffffffff168173ffffffffffffffffffffffffffffffffffffffff161415151561098e57600080fd5b61099882826106d7565b15156109a357600080fd5b60008260000160008373ffffffffffffffffffffffffffffffffffffffff1673ffffffffffffffffffffffffffffffffffffffff16815260200190815260200160002060006101000a81548160ff02191690831515021790555050505600a165627a7a7230582010594c8546783756d8a45e42f7df0aee0a4cd313db3a8a6264727f21c6e1c98f0029",
  "source": "pragma solidity ^0.4.24;\n\nimport \"./DepositRole.sol\";\nimport \"openzeppelin-solidity/contracts/ownership/Secondary.sol\";\nimport \"openzeppelin-solidity/contracts/utils/Address.sol\";\n\n/**\n** 이더리움을 판매하는 Smartcontract이다.\n** 결제 서버가 사용자의 결제 내역을 확인한 후\n** Vendor contract에 예치된 이더를 사용자의 주소로 송금한다.\n**\n** 모든 기능은 Contract 소유자(결제서버)에 의해 통제된다.\n** 예외적으로 예치 기능은 예치 가능 계정 명단을 두어\n** 지정된 계정만 예치할 수 있도록 한다.\n*/\n\ncontract Vendor is Secondary, DepositRole{\n\n\tusing Address for address;\n\n\t/**\n\t**\tcontract function은 event를 발생시키고,\n\t**\tEthereum Node에서 event를 검출하면 서버를 통해\n\t**\t관련 사용자에게 Notify한다.\n\tTODO indexed 파라미터에 대해 알아볼 것\n\t*/\n\tevent EVM_transferred(address _who, uint _amount);\t// for transfer()\n\tevent EVM_deposited  (address _who, uint _amount);\t// for deposit()\n\tevent EVM_withdrawn  ();\t// for withdraw(), have to never be called\n\n\t/**\n\t** 송금\n\t** 결제 서버를 통해 구입한 사용자에게\n\t** 이더를 송금한다.\n\t*/\n \tfunction sendGoods(address _customer, uint _amount) onlyPrimary public{\n\t\t// Contract account로는 송금하지 아니한다.\n\t\trequire( !_customer.isContract() && _customer != address(0) );\n\t\trequire( _amount < address(this).balance );\n\n\t\t_customer.transfer(_amount);\n\n\t\temit EVM_transferred(_customer, _amount);\n\t}\n\n\t/**\n\t** 출금\n\t** Contract 소유 계정으로만 출금한다.\n\t*/\n\tfunction withdraw() onlyPrimary public {\n\t\tprimary().transfer( address(this).balance );\n\t\temit EVM_withdrawn();\n\t}\n\n\t/**\n\t** 예치\n\t** 정해진 계정만 예치 가능하다.\n\t** Fallback 함수는 다른 함수를 호출하지않고 이더를 \n\t** 송금하는 경우 호출되는 함수이다.\n\t** 예치 권리자가 아니면 이더를 반환한다.\n\t*/\n \tfunction () public onlyDepositter payable {\n//\t\tif( !isProcurer(msg.sender) )\n//\t\t\tmsg.sender.transfer(msg.value);\n\n\t\temit EVM_deposited(msg.sender, msg.value);\n\t}\n\n}\n",
  "sourcePath": "/Users/tky476/Workspace/ProjectEVM/contract/contracts/Vendor.sol",
  "compiler": {
    "name": "solc",
    "version": "0.4.24+commit.e67f0147.Emscripten.clang"
  },
  "schemaVersion": "2.0.1",
  "updatedAt": "2018-11-27T11:32:26.353Z"
}